{"abi":[{"type":"constructor","inputs":[{"name":"supraSC","type":"address","internalType":"address"}],"stateMutability":"nonpayable"},{"type":"function","name":"requestCallback","inputs":[{"name":"_nonce","type":"uint256","internalType":"uint256"},{"name":"_rngList","type":"uint256[]","internalType":"uint256[]"}],"outputs":[],"stateMutability":"nonpayable"},{"type":"function","name":"rng","inputs":[],"outputs":[{"name":"","type":"uint256","internalType":"uint256"}],"stateMutability":"nonpayable"},{"type":"function","name":"viewRngForNonce","inputs":[{"name":"nonce","type":"uint256","internalType":"uint256"}],"outputs":[{"name":"","type":"uint256[]","internalType":"uint256[]"}],"stateMutability":"view"}],"bytecode":{"object":"0x6080604052348015600f57600080fd5b5060405161064e38038061064e833981016040819052602c916059565b600080546001600160a01b039092166001600160a01b031992831617905560018054909116331790556087565b600060208284031215606a57600080fd5b81516001600160a01b0381168114608057600080fd5b9392505050565b6105b8806100966000396000f3fe608060405234801561001057600080fd5b50600436106100415760003560e01c8063b0021a0d14610046578063bf82fe0f1461005b578063d605787b14610084575b600080fd5b6100596100543660046103ae565b61009a565b005b61006e610069366004610487565b610206565b60405161007b91906104a0565b60405180910390f35b61008c610268565b60405190815260200161007b565b6000546001600160a01b0316331461010e5760405162461bcd60e51b815260206004820152602d60248201527f4f6e6c792074686520537570726120526f757465722063616e2063616c6c207460448201526c3434b990333ab731ba34b7b71760991b606482015260840160405180910390fd5b600080825167ffffffffffffffff81111561012b5761012b610398565b604051908082528060200260200182016040528015610154578160200160208202803683370190505b5060008581526002602090815260409091208251929350610179929091840190610338565b50600091505b82518260ff161015610200576006838360ff16815181106101a2576101a26104e3565b60200260200101516101b491906104f9565b6101bf906001610531565b6000858152600260205260409020805460ff85169081106101e2576101e26104e3565b600091825260209091200155816101f88161054a565b92505061017f565b50505050565b60008181526002602090815260409182902080548351818402810184019094528084526060939283018282801561025c57602002820191906000526020600020905b815481526020019060010190808311610248575b50505050509050919050565b600080546001805460405163d291ba0960e01b815260806004820152602260848201527f7265717565737443616c6c6261636b2875696e743235362c75696e743235365b60a4820152615d2960f01b60c482015260248101839052604481018390526001600160a01b0391821660648201529192839285929091169063d291ba099060e4016020604051808303816000875af115801561030c573d6000803e3d6000fd5b505050506040513d601f19601f820116820180604052508101906103309190610569565b949350505050565b828054828255906000526020600020908101928215610373579160200282015b82811115610373578251825591602001919060010190610358565b5061037f929150610383565b5090565b5b8082111561037f5760008155600101610384565b634e487b7160e01b600052604160045260246000fd5b600080604083850312156103c157600080fd5b82359150602083013567ffffffffffffffff8111156103df57600080fd5b8301601f810185136103f057600080fd5b803567ffffffffffffffff81111561040a5761040a610398565b8060051b604051601f19603f830116810181811067ffffffffffffffff8211171561043757610437610398565b60405291825260208184018101929081018884111561045557600080fd5b6020850194505b838510156104785784358082526020958601959093500161045c565b50809450505050509250929050565b60006020828403121561049957600080fd5b5035919050565b602080825282518282018190526000918401906040840190835b818110156104d85783518352602093840193909201916001016104ba565b509095945050505050565b634e487b7160e01b600052603260045260246000fd5b60008261051657634e487b7160e01b600052601260045260246000fd5b500690565b634e487b7160e01b600052601160045260246000fd5b808201808211156105445761054461051b565b92915050565b600060ff821660ff81036105605761056061051b565b60010192915050565b60006020828403121561057b57600080fd5b505191905056fea26469706673582212208d1a8511b6ed5be5b3dcdb9b523ff702af95f7808606b3298fdfdefcc9abd98664736f6c634300081a0033","linkReferences":{}},"methodIdentifiers":{"requestCallback(uint256,uint256[])":"b0021a0d","rng()":"d605787b","viewRngForNonce(uint256)":"bf82fe0f"},"id":0}