{
  "_format": "hh-sol-artifact-1",
  "contractName": "GreedyPig",
  "sourceName": "contracts/GreedyPig.sol",
  "abi": [
    {
      "anonymous": false,
      "inputs": [
        {
          "indexed": true,
          "internalType": "uint256",
          "name": "gameId",
          "type": "uint256"
        },
        {
          "indexed": true,
          "internalType": "address",
          "name": "creator",
          "type": "address"
        }
      ],
      "name": "GameCreated",
      "type": "event"
    },
    {
      "anonymous": false,
      "inputs": [
        {
          "indexed": true,
          "internalType": "uint256",
          "name": "gameId",
          "type": "uint256"
        },
        {
          "indexed": true,
          "internalType": "address",
          "name": "winner",
          "type": "address"
        }
      ],
      "name": "GameEnded",
      "type": "event"
    },
    {
      "anonymous": false,
      "inputs": [
        {
          "indexed": true,
          "internalType": "uint256",
          "name": "gameId",
          "type": "uint256"
        },
        {
          "indexed": true,
          "internalType": "address",
          "name": "player",
          "type": "address"
        }
      ],
      "name": "PlayerJoined",
      "type": "event"
    },
    {
      "anonymous": false,
      "inputs": [
        {
          "indexed": true,
          "internalType": "uint256",
          "name": "gameId",
          "type": "uint256"
        },
        {
          "indexed": true,
          "internalType": "address",
          "name": "player",
          "type": "address"
        },
        {
          "indexed": false,
          "internalType": "uint256",
          "name": "roll",
          "type": "uint256"
        }
      ],
      "name": "PlayerRoll",
      "type": "event"
    },
    {
      "anonymous": false,
      "inputs": [
        {
          "indexed": false,
          "internalType": "uint256",
          "name": "requestId",
          "type": "uint256"
        },
        {
          "indexed": false,
          "internalType": "uint256",
          "name": "randomWord",
          "type": "uint256"
        }
      ],
      "name": "RequestFulfilled",
      "type": "event"
    },
    {
      "anonymous": false,
      "inputs": [
        {
          "indexed": false,
          "internalType": "uint256",
          "name": "requestId",
          "type": "uint256"
        },
        {
          "indexed": false,
          "internalType": "uint32",
          "name": "numWords",
          "type": "uint32"
        }
      ],
      "name": "RequestSent",
      "type": "event"
    },
    {
      "inputs": [],
      "name": "callbackGasLimit",
      "outputs": [
        {
          "internalType": "uint32",
          "name": "",
          "type": "uint32"
        }
      ],
      "stateMutability": "view",
      "type": "function"
    },
    {
      "inputs": [
        {
          "internalType": "string",
          "name": "_name",
          "type": "string"
        },
        {
          "internalType": "uint256",
          "name": "_targetScore",
          "type": "uint256"
        },
        {
          "internalType": "bool",
          "name": "_bet",
          "type": "bool"
        },
        {
          "internalType": "uint256",
          "name": "_stakemount",
          "type": "uint256"
        }
      ],
      "name": "createGame",
      "outputs": [],
      "stateMutability": "nonpayable",
      "type": "function"
    },
    {
      "inputs": [],
      "name": "gameId",
      "outputs": [
        {
          "internalType": "uint256",
          "name": "",
          "type": "uint256"
        }
      ],
      "stateMutability": "view",
      "type": "function"
    },
    {
      "inputs": [],
      "name": "getBalance",
      "outputs": [
        {
          "internalType": "uint256",
          "name": "",
          "type": "uint256"
        }
      ],
      "stateMutability": "view",
      "type": "function"
    },
    {
      "inputs": [
        {
          "internalType": "uint256",
          "name": "_gameId",
          "type": "uint256"
        }
      ],
      "name": "getGame",
      "outputs": [
        {
          "internalType": "uint256",
          "name": "id",
          "type": "uint256"
        },
        {
          "internalType": "string",
          "name": "name",
          "type": "string"
        },
        {
          "internalType": "address",
          "name": "creator",
          "type": "address"
        },
        {
          "internalType": "uint256",
          "name": "targetScore",
          "type": "uint256"
        },
        {
          "internalType": "uint256",
          "name": "stakemount",
          "type": "uint256"
        },
        {
          "internalType": "uint256",
          "name": "rollOutcome",
          "type": "uint256"
        },
        {
          "internalType": "bool",
          "name": "bet",
          "type": "bool"
        },
        {
          "internalType": "enum GreedyPig.GameStatus",
          "name": "status",
          "type": "uint8"
        },
        {
          "components": [
            {
              "internalType": "address",
              "name": "player",
              "type": "address"
            },
            {
              "internalType": "uint256",
              "name": "turnScore",
              "type": "uint256"
            },
            {
              "internalType": "uint256",
              "name": "totalScore",
              "type": "uint256"
            },
            {
              "internalType": "bool",
              "name": "deposited",
              "type": "bool"
            },
            {
              "internalType": "bool",
              "name": "winner",
              "type": "bool"
            }
          ],
          "internalType": "struct GreedyPig.PlayerInfo[]",
          "name": "players",
          "type": "tuple[]"
        },
        {
          "internalType": "address",
          "name": "activePlayer",
          "type": "address"
        }
      ],
      "stateMutability": "view",
      "type": "function"
    },
    {
      "inputs": [],
      "name": "getGameId",
      "outputs": [
        {
          "internalType": "uint256",
          "name": "",
          "type": "uint256"
        }
      ],
      "stateMutability": "view",
      "type": "function"
    },
    {
      "inputs": [
        {
          "internalType": "uint256",
          "name": "_gameId",
          "type": "uint256"
        }
      ],
      "name": "joinGame",
      "outputs": [],
      "stateMutability": "payable",
      "type": "function"
    },
    {
      "inputs": [],
      "name": "keyHash",
      "outputs": [
        {
          "internalType": "bytes32",
          "name": "",
          "type": "bytes32"
        }
      ],
      "stateMutability": "view",
      "type": "function"
    },
    {
      "inputs": [],
      "name": "lastRequestId",
      "outputs": [
        {
          "internalType": "uint256",
          "name": "",
          "type": "uint256"
        }
      ],
      "stateMutability": "view",
      "type": "function"
    },
    {
      "inputs": [],
      "name": "numWords",
      "outputs": [
        {
          "internalType": "uint32",
          "name": "",
          "type": "uint32"
        }
      ],
      "stateMutability": "view",
      "type": "function"
    },
    {
      "inputs": [
        {
          "internalType": "uint256",
          "name": "_gameId",
          "type": "uint256"
        }
      ],
      "name": "passTurn",
      "outputs": [],
      "stateMutability": "nonpayable",
      "type": "function"
    },
    {
      "inputs": [],
      "name": "requestConfirmations",
      "outputs": [
        {
          "internalType": "uint16",
          "name": "",
          "type": "uint16"
        }
      ],
      "stateMutability": "view",
      "type": "function"
    },
    {
      "inputs": [
        {
          "internalType": "uint256",
          "name": "",
          "type": "uint256"
        }
      ],
      "name": "requestIds",
      "outputs": [
        {
          "internalType": "uint256",
          "name": "",
          "type": "uint256"
        }
      ],
      "stateMutability": "view",
      "type": "function"
    },
    {
      "inputs": [
        {
          "internalType": "uint256",
          "name": "_gameId",
          "type": "uint256"
        }
      ],
      "name": "rollDice",
      "outputs": [],
      "stateMutability": "nonpayable",
      "type": "function"
    },
    {
      "inputs": [
        {
          "internalType": "uint256",
          "name": "",
          "type": "uint256"
        }
      ],
      "name": "s_requests",
      "outputs": [
        {
          "internalType": "bool",
          "name": "fulfilled",
          "type": "bool"
        },
        {
          "internalType": "bool",
          "name": "exists",
          "type": "bool"
        },
        {
          "internalType": "uint256",
          "name": "randomWord",
          "type": "uint256"
        }
      ],
      "stateMutability": "view",
      "type": "function"
    },
    {
      "inputs": [],
      "name": "s_subscriptionId",
      "outputs": [
        {
          "internalType": "uint256",
          "name": "",
          "type": "uint256"
        }
      ],
      "stateMutability": "view",
      "type": "function"
    },
    {
      "stateMutability": "payable",
      "type": "receive"
    }
  ],
  "bytecode": "0x6080604052620186a0600a60006101000a81548163ffffffff021916908363ffffffff1602179055506003600a60046101000a81548161ffff021916908361ffff1602179055506001600a60066101000a81548163ffffffff021916908363ffffffff16021790555034801561007457600080fd5b5061294b806100846000396000f3fe6080604052600436106100f75760003560e01c8063a168fa891161008a578063c0bd835111610059578063c0bd835114610342578063d7c81b551461036d578063efaa55a014610398578063fc2a88c3146103b4576100fe565b8063a168fa8914610269578063a2f77bcc146102a8578063acfff377146102ee578063b0fb162f14610317576100fe565b806361728f39116100c657806361728f39146101ab5780637ccfd7fc146101d65780638796ba8c146102015780638ac000211461023e576100fe565b806312065fe0146101035780631a5375e11461012e57806324f746971461015757806351f3e29f14610182576100fe565b366100fe57005b600080fd5b34801561010f57600080fd5b506101186103df565b6040516101259190611801565b60405180910390f35b34801561013a57600080fd5b506101556004803603810190610150919061185c565b6103e7565b005b34801561016357600080fd5b5061016c61058f565b60405161017991906118a8565b60405180910390f35b34801561018e57600080fd5b506101a960048036038101906101a49190611a41565b6105a5565b005b3480156101b757600080fd5b506101c0610717565b6040516101cd9190611add565b60405180910390f35b3480156101e257600080fd5b506101eb61071d565b6040516101f891906118a8565b60405180910390f35b34801561020d57600080fd5b506102286004803603810190610223919061185c565b610733565b6040516102359190611801565b60405180910390f35b34801561024a57600080fd5b50610253610757565b6040516102609190611801565b60405180910390f35b34801561027557600080fd5b50610290600480360381019061028b919061185c565b61075d565b60405161029f93929190611b07565b60405180910390f35b3480156102b457600080fd5b506102cf60048036038101906102ca919061185c565b6107a1565b6040516102e59a99989796959493929190611db9565b60405180910390f35b3480156102fa57600080fd5b506103156004803603810190610310919061185c565b610b1d565b005b34801561032357600080fd5b5061032c610f55565b6040516103399190611e80565b60405180910390f35b34801561034e57600080fd5b50610357610f69565b6040516103649190611801565b60405180910390f35b34801561037957600080fd5b50610382610f72565b60405161038f9190611801565b60405180910390f35b6103b260048036038101906103ad919061185c565b610f78565b005b3480156103c057600080fd5b506103c9611321565b6040516103d69190611801565b60405180910390f35b600047905090565b806000811180156103fa57506000548111155b610439576040517f08c379a000000000000000000000000000000000000000000000000000000000815260040161043090611ee7565b60405180910390fd5b8160006002600083815260200190815260200160002090503373ffffffffffffffffffffffffffffffffffffffff168160080182600a01548154811061048257610481611f07565b5b9060005260206000200160009054906101000a900473ffffffffffffffffffffffffffffffffffffffff1673ffffffffffffffffffffffffffffffffffffffff1614610503576040517f08c379a00000000000000000000000000000000000000000000000000000000081526004016104fa90611f82565b60405180910390fd5b600060026000868152602001908152602001600020905060008160070160003373ffffffffffffffffffffffffffffffffffffffff1673ffffffffffffffffffffffffffffffffffffffff168152602001908152602001600020905080600101548160020160008282546105779190611fd1565b9250508190555061058786611327565b505050505050565b600a60009054906101000a900463ffffffff1681565b6000808154809291906105b790612005565b91905055506000600260008054815260200190815260200160002090506000548160000181905550848160010190816105f09190612259565b50338160020160006101000a81548173ffffffffffffffffffffffffffffffffffffffff021916908373ffffffffffffffffffffffffffffffffffffffff160217905550838160030181905550818160040181905550828160060160006101000a81548160ff021916908315150217905550600360003373ffffffffffffffffffffffffffffffffffffffff1673ffffffffffffffffffffffffffffffffffffffff16815260200190815260200160002060005490806001815401808255809150506001900390600052602060002001600090919091909150553373ffffffffffffffffffffffffffffffffffffffff166000547fc3e0f84839dc888c892a013d10c8f9d6dc05a21a879d0ce468ca558013e9121c60405160405180910390a35050505050565b60095481565b600a60069054906101000a900463ffffffff1681565b6007818154811061074357600080fd5b906000526020600020016000915090505481565b60065481565b60056020528060005260406000206000915090508060000160009054906101000a900460ff16908060000160019054906101000a900460ff16908060010154905083565b60006060600080600080600080606060008a6000811180156107c557506000548111155b610804576040517f08c379a00000000000000000000000000000000000000000000000000000000081526004016107fb90611ee7565b60405180910390fd5b6000600260008e815260200190815260200160002090506000816008018054905067ffffffffffffffff81111561083e5761083d6118de565b5b60405190808252806020026020018201604052801561087757816020015b61086461179f565b81526020019060019003908161085c5790505b50905060005b82600801805490508110156109ae5760008360080182815481106108a4576108a3611f07565b5b9060005260206000200160009054906101000a900473ffffffffffffffffffffffffffffffffffffffff16905060008460070160008373ffffffffffffffffffffffffffffffffffffffff1673ffffffffffffffffffffffffffffffffffffffff16815260200190815260200160002090506040518060a001604052808373ffffffffffffffffffffffffffffffffffffffff16815260200182600101548152602001826002015481526020018260030160009054906101000a900460ff16151581526020018260030160019054906101000a900460ff16151581525084848151811061099457610993611f07565b5b60200260200101819052505050808060010191505061087d565b508160000154826001018360020160009054906101000a900473ffffffffffffffffffffffffffffffffffffffff168460030154856004015486600501548760060160009054906101000a900460ff168860090160009054906101000a900460ff168860008b6008018054905011610a27576000610a6d565b8a6008018b600a015481548110610a4157610a40611f07565b5b9060005260206000200160009054906101000a900473ffffffffffffffffffffffffffffffffffffffff165b888054610a799061207c565b80601f0160208091040260200160405190810160405280929190818152602001828054610aa59061207c565b8015610af25780601f10610ac757610100808354040283529160200191610af2565b820191906000526020600020905b815481529060010190602001808311610ad557829003601f168201915b505050505098509c509c509c509c509c509c509c509c509c509c505050509193959799509193959799565b80600081118015610b3057506000548111155b610b6f576040517f08c379a0000000000000000000000000000000000000000000000000000000008152600401610b6690611ee7565b60405180910390fd5b8160006002600083815260200190815260200160002090503373ffffffffffffffffffffffffffffffffffffffff168160080182600a015481548110610bb857610bb7611f07565b5b9060005260206000200160009054906101000a900473ffffffffffffffffffffffffffffffffffffffff1673ffffffffffffffffffffffffffffffffffffffff1614610c39576040517f08c379a0000000000000000000000000000000000000000000000000000000008152600401610c3090611f82565b60405180910390fd5b6000600260008681526020019081526020016000209050600281600801805490501015610c9b576040517f08c379a0000000000000000000000000000000000000000000000000000000008152600401610c929061239d565b60405180910390fd5b610ca48161142f565b15610ce4576040517f08c379a0000000000000000000000000000000000000000000000000000000008152600401610cdb90612409565b60405180910390fd5b60006002811115610cf857610cf7611bfe565b5b8160090160009054906101000a900460ff166002811115610d1c57610d1b611bfe565b5b03610d4f5760018160090160006101000a81548160ff02191690836002811115610d4957610d48611bfe565b5b02179055505b6000610d59611470565b90508082600501819055503373ffffffffffffffffffffffffffffffffffffffff16867f84c283c54b9dd7c119a547366366504244b6d5c87460f44ffe83463b000af1e783604051610dab9190611801565b60405180910390a360008260070160003373ffffffffffffffffffffffffffffffffffffffff1673ffffffffffffffffffffffffffffffffffffffff168152602001908152602001600020905060018203610e185760008160010181905550610e1387611327565b610f4c565b81816001016000828254610e2c9190611fd1565b92505081905550826003015481600201548260010154610e4c9190611fd1565b10610f4b5760028360090160006101000a81548160ff02191690836002811115610e7957610e78611bfe565b5b02179055508060010154816002016000828254610e969190611fd1565b9250508190555060018160030160016101000a81548160ff0219169083151502179055503383600b0160006101000a81548173ffffffffffffffffffffffffffffffffffffffff021916908373ffffffffffffffffffffffffffffffffffffffff160217905550610f06876114bb565b3373ffffffffffffffffffffffffffffffffffffffff16877f3d5fcd8fa3235aeb3897f25c8ea49989174981afcb01b9d03189d1056a16775b60405160405180910390a35b5b50505050505050565b600a60049054906101000a900461ffff1681565b60008054905090565b60005481565b80600081118015610f8b57506000548111155b610fca576040517f08c379a0000000000000000000000000000000000000000000000000000000008152600401610fc190611ee7565b60405180910390fd5b6000600260008481526020019081526020016000209050610feb83336116dd565b1561102b576040517f08c379a00000000000000000000000000000000000000000000000000000000081526004016110229061249b565b60405180910390fd5b6000600281111561103f5761103e611bfe565b5b8160090160009054906101000a900460ff16600281111561106357611062611bfe565b5b146110a3576040517f08c379a000000000000000000000000000000000000000000000000000000000815260040161109a90612507565b60405180910390fd5b806004015434146110e9576040517f08c379a00000000000000000000000000000000000000000000000000000000081526004016110e090612573565b60405180910390fd5b6040518060a001604052803373ffffffffffffffffffffffffffffffffffffffff1681526020016000815260200160008152602001600115158152602001600015158152508160070160003373ffffffffffffffffffffffffffffffffffffffff1673ffffffffffffffffffffffffffffffffffffffff16815260200190815260200160002060008201518160000160006101000a81548173ffffffffffffffffffffffffffffffffffffffff021916908373ffffffffffffffffffffffffffffffffffffffff160217905550602082015181600101556040820151816002015560608201518160030160006101000a81548160ff02191690831515021790555060808201518160030160016101000a81548160ff02191690831515021790555090505080600801339080600181540180825580915050600190039060005260206000200160009091909190916101000a81548173ffffffffffffffffffffffffffffffffffffffff021916908373ffffffffffffffffffffffffffffffffffffffff160217905550600460003373ffffffffffffffffffffffffffffffffffffffff1673ffffffffffffffffffffffffffffffffffffffff1681526020019081526020016000208390806001815401808255809150506001900390600052602060002001600090919091909150553373ffffffffffffffffffffffffffffffffffffffff16837f87969bc7faf902221a147b95ceba76e011c5efb0339a0a8ee7a2bb82d9cfbbd660405160405180910390a3505050565b60085481565b60006002600083815260200190815260200160002090506001600281111561135257611351611bfe565b5b8160090160009054906101000a900460ff16600281111561137657611375611bfe565b5b146113b6576040517f08c379a00000000000000000000000000000000000000000000000000000000081526004016113ad906125df565b60405180910390fd5b6000816008018054905011611400576040517f08c379a00000000000000000000000000000000000000000000000000000000081526004016113f79061264b565b60405180910390fd5b8060080180549050600182600a01546114199190611fd1565b611423919061269a565b81600a01819055505050565b600060028081111561144457611443611bfe565b5b8260090160009054906101000a900460ff16600281111561146857611467611bfe565b5b149050919050565b60006001600642446040516020016114899291906126ec565b6040516020818303038152906040528051906020012060001c6114ac919061269a565b6114b69190611fd1565b905090565b600160009054906101000a900460ff161561150b576040517f08c379a000000000000000000000000000000000000000000000000000000000815260040161150290612764565b60405180910390fd5b60018060006101000a81548160ff021916908315150217905550600060026000838152602001908152602001600020905060028081111561154f5761154e611bfe565b5b8160090160009054906101000a900460ff16600281111561157357611572611bfe565b5b146115b3576040517f08c379a00000000000000000000000000000000000000000000000000000000081526004016115aa906127d0565b60405180910390fd5b600081600b0160009054906101000a900473ffffffffffffffffffffffffffffffffffffffff16905060006064605a846008018054905085600401546115f991906127f0565b61160391906127f0565b61160d9190612832565b905060008273ffffffffffffffffffffffffffffffffffffffff168260405161163590612894565b60006040518083038185875af1925050503d8060008114611672576040519150601f19603f3d011682016040523d82523d6000602084013e611677565b606091505b50509050806116bb576040517f08c379a00000000000000000000000000000000000000000000000000000000081526004016116b2906128f5565b60405180910390fd5b505050506000600160006101000a81548160ff02191690831515021790555050565b60008060026000858152602001908152602001600020905060005b8160080180549050811015611792578373ffffffffffffffffffffffffffffffffffffffff1682600801828154811061173457611733611f07565b5b9060005260206000200160009054906101000a900473ffffffffffffffffffffffffffffffffffffffff1673ffffffffffffffffffffffffffffffffffffffff160361178557600192505050611799565b80806001019150506116f8565b5060009150505b92915050565b6040518060a00160405280600073ffffffffffffffffffffffffffffffffffffffff16815260200160008152602001600081526020016000151581526020016000151581525090565b6000819050919050565b6117fb816117e8565b82525050565b600060208201905061181660008301846117f2565b92915050565b6000604051905090565b600080fd5b600080fd5b611839816117e8565b811461184457600080fd5b50565b60008135905061185681611830565b92915050565b60006020828403121561187257611871611826565b5b600061188084828501611847565b91505092915050565b600063ffffffff82169050919050565b6118a281611889565b82525050565b60006020820190506118bd6000830184611899565b92915050565b600080fd5b600080fd5b6000601f19601f8301169050919050565b7f4e487b7100000000000000000000000000000000000000000000000000000000600052604160045260246000fd5b611916826118cd565b810181811067ffffffffffffffff82111715611935576119346118de565b5b80604052505050565b600061194861181c565b9050611954828261190d565b919050565b600067ffffffffffffffff821115611974576119736118de565b5b61197d826118cd565b9050602081019050919050565b82818337600083830152505050565b60006119ac6119a784611959565b61193e565b9050828152602081018484840111156119c8576119c76118c8565b5b6119d384828561198a565b509392505050565b600082601f8301126119f0576119ef6118c3565b5b8135611a00848260208601611999565b91505092915050565b60008115159050919050565b611a1e81611a09565b8114611a2957600080fd5b50565b600081359050611a3b81611a15565b92915050565b60008060008060808587031215611a5b57611a5a611826565b5b600085013567ffffffffffffffff811115611a7957611a7861182b565b5b611a85878288016119db565b9450506020611a9687828801611847565b9350506040611aa787828801611a2c565b9250506060611ab887828801611847565b91505092959194509250565b6000819050919050565b611ad781611ac4565b82525050565b6000602082019050611af26000830184611ace565b92915050565b611b0181611a09565b82525050565b6000606082019050611b1c6000830186611af8565b611b296020830185611af8565b611b3660408301846117f2565b949350505050565b600081519050919050565b600082825260208201905092915050565b60005b83811015611b78578082015181840152602081019050611b5d565b60008484015250505050565b6000611b8f82611b3e565b611b998185611b49565b9350611ba9818560208601611b5a565b611bb2816118cd565b840191505092915050565b600073ffffffffffffffffffffffffffffffffffffffff82169050919050565b6000611be882611bbd565b9050919050565b611bf881611bdd565b82525050565b7f4e487b7100000000000000000000000000000000000000000000000000000000600052602160045260246000fd5b60038110611c3e57611c3d611bfe565b5b50565b6000819050611c4f82611c2d565b919050565b6000611c5f82611c41565b9050919050565b611c6f81611c54565b82525050565b600081519050919050565b600082825260208201905092915050565b6000819050602082019050919050565b611caa81611bdd565b82525050565b611cb9816117e8565b82525050565b611cc881611a09565b82525050565b60a082016000820151611ce46000850182611ca1565b506020820151611cf76020850182611cb0565b506040820151611d0a6040850182611cb0565b506060820151611d1d6060850182611cbf565b506080820151611d306080850182611cbf565b50505050565b6000611d428383611cce565b60a08301905092915050565b6000602082019050919050565b6000611d6682611c75565b611d708185611c80565b9350611d7b83611c91565b8060005b83811015611dac578151611d938882611d36565b9750611d9e83611d4e565b925050600181019050611d7f565b5085935050505092915050565b600061014082019050611dcf600083018d6117f2565b8181036020830152611de1818c611b84565b9050611df0604083018b611bef565b611dfd606083018a6117f2565b611e0a60808301896117f2565b611e1760a08301886117f2565b611e2460c0830187611af8565b611e3160e0830186611c66565b818103610100830152611e448185611d5b565b9050611e54610120830184611bef565b9b9a5050505050505050505050565b600061ffff82169050919050565b611e7a81611e63565b82525050565b6000602082019050611e956000830184611e71565b92915050565b7f496e76616c69642067616d652049440000000000000000000000000000000000600082015250565b6000611ed1600f83611b49565b9150611edc82611e9b565b602082019050919050565b60006020820190508181036000830152611f0081611ec4565b9050919050565b7f4e487b7100000000000000000000000000000000000000000000000000000000600052603260045260246000fd5b7f49742773206e6f7420796f7572207475726e0000000000000000000000000000600082015250565b6000611f6c601283611b49565b9150611f7782611f36565b602082019050919050565b60006020820190508181036000830152611f9b81611f5f565b9050919050565b7f4e487b7100000000000000000000000000000000000000000000000000000000600052601160045260246000fd5b6000611fdc826117e8565b9150611fe7836117e8565b9250828201905080821115611fff57611ffe611fa2565b5b92915050565b6000612010826117e8565b91507fffffffffffffffffffffffffffffffffffffffffffffffffffffffffffffffff820361204257612041611fa2565b5b600182019050919050565b7f4e487b7100000000000000000000000000000000000000000000000000000000600052602260045260246000fd5b6000600282049050600182168061209457607f821691505b6020821081036120a7576120a661204d565b5b50919050565b60008190508160005260206000209050919050565b60006020601f8301049050919050565b600082821b905092915050565b60006008830261210f7fffffffffffffffffffffffffffffffffffffffffffffffffffffffffffffffff826120d2565b61211986836120d2565b95508019841693508086168417925050509392505050565b6000819050919050565b600061215661215161214c846117e8565b612131565b6117e8565b9050919050565b6000819050919050565b6121708361213b565b61218461217c8261215d565b8484546120df565b825550505050565b600090565b61219961218c565b6121a4818484612167565b505050565b5b818110156121c8576121bd600082612191565b6001810190506121aa565b5050565b601f82111561220d576121de816120ad565b6121e7846120c2565b810160208510156121f6578190505b61220a612202856120c2565b8301826121a9565b50505b505050565b600082821c905092915050565b600061223060001984600802612212565b1980831691505092915050565b6000612249838361221f565b9150826002028217905092915050565b61226282611b3e565b67ffffffffffffffff81111561227b5761227a6118de565b5b612285825461207c565b6122908282856121cc565b600060209050601f8311600181146122c357600084156122b1578287015190505b6122bb858261223d565b865550612323565b601f1984166122d1866120ad565b60005b828110156122f9578489015182556001820191506020850194506020810190506122d4565b868310156123165784890151612312601f89168261221f565b8355505b6001600288020188555050505b505050505050565b7f4174206c656173742074776f20706c617965727320617265207265717569726560008201527f6420746f207374617274207468652067616d6500000000000000000000000000602082015250565b6000612387603383611b49565b91506123928261232b565b604082019050919050565b600060208201905081810360008301526123b68161237a565b9050919050565b7f5468652067616d65206973206f76657200000000000000000000000000000000600082015250565b60006123f3601083611b49565b91506123fe826123bd565b602082019050919050565b60006020820190508181036000830152612422816123e6565b9050919050565b7f596f75206861766520616c7265616479206a6f696e656420746869732067616d60008201527f6500000000000000000000000000000000000000000000000000000000000000602082015250565b6000612485602183611b49565b915061249082612429565b604082019050919050565b600060208201905081810360008301526124b481612478565b9050919050565b7f43616e2774206a6f696e20617420746865206d6f6d656e740000000000000000600082015250565b60006124f1601883611b49565b91506124fc826124bb565b602082019050919050565b60006020820190508181036000830152612520816124e4565b9050919050565b7f496e636f7272656374207374616b6520616d6f756e7400000000000000000000600082015250565b600061255d601683611b49565b915061256882612527565b602082019050919050565b6000602082019050818103600083015261258c81612550565b9050919050565b7f47616d65206e6f7420696e2070726f6772657373000000000000000000000000600082015250565b60006125c9601483611b49565b91506125d482612593565b602082019050919050565b600060208201905081810360008301526125f8816125bc565b9050919050565b7f4e6f20706c617965727320696e207468652067616d6500000000000000000000600082015250565b6000612635601683611b49565b9150612640826125ff565b602082019050919050565b6000602082019050818103600083015261266481612628565b9050919050565b7f4e487b7100000000000000000000000000000000000000000000000000000000600052601260045260246000fd5b60006126a5826117e8565b91506126b0836117e8565b9250826126c0576126bf61266b565b5b828206905092915050565b6000819050919050565b6126e66126e1826117e8565b6126cb565b82525050565b60006126f882856126d5565b60208201915061270882846126d5565b6020820191508190509392505050565b7f4e6f2072652d656e7472616e6379000000000000000000000000000000000000600082015250565b600061274e600e83611b49565b915061275982612718565b602082019050919050565b6000602082019050818103600083015261277d81612741565b9050919050565b7f47616d65206973206e6f7420656e646564207965740000000000000000000000600082015250565b60006127ba601583611b49565b91506127c582612784565b602082019050919050565b600060208201905081810360008301526127e9816127ad565b9050919050565b60006127fb826117e8565b9150612806836117e8565b9250828202612814816117e8565b9150828204841483151761282b5761282a611fa2565b5b5092915050565b600061283d826117e8565b9150612848836117e8565b9250826128585761285761266b565b5b828204905092915050565b600081905092915050565b50565b600061287e600083612863565b91506128898261286e565b600082019050919050565b600061289f82612871565b9150819050919050565b7f5472616e73666572206661696c65640000000000000000000000000000000000600082015250565b60006128df600f83611b49565b91506128ea826128a9565b602082019050919050565b6000602082019050818103600083015261290e816128d2565b905091905056fea2646970667358221220f249c33247a572188dd42c775e5ecf6849255af33956a1506536a46ef6eee1b364736f6c63430008180033",
  "linkReferences": {},
  "deployedLinkReferences": {}
}